:10000000B5C1D9C1D8C1D7C1D6C1D5C1D4C1D3C159
:10001000D2C1D1C1D0C1CFC1CEC162CAA9CA076302
:100020004236B79BD8A71A39685618AEBAAB558C6A
:100030001D3CB7CC5763BD6DEDFD753EF6177231B3
:10004000BF000000803F08000000BE922449123E1D
:10005000ABAAAA2ABECDCCCC4C3E00000080BEABE1
:10006000AAAAAA3E00000000BF000000803F0000D6
:10007000000000084178D3BB4387D1133D190E3CE3
:10008000C3BD4282AD2B3E68EC8276BED98FE1A91A
:100090003E4C80EFFFBE01C4FF7F3F000000000028
:1000A0000800000000000000000000000000000048
:1000B000000000000000000000000000000000053B
:1000C00080008000800080008000000000000000B0
:1000D000000000000000000000000000000003001D
:1000E00000000000180000000000000000000000F8
:1000F00000000000000000000000000000030000FD
:1001000000003018000000000000000000000000A7
:100110000000000000000000000000000F00007C54
:1001200000820082008210820C7C028001600090BC
:100130000F4C10421040104010800F09F0030C0CBF
:10014000040802100210021002100210040800003D
:100150000000000000000000000008FE1F421042E6
:1001600010421042104210421042100000000000E5
:100170000000000000000000000AFE1F40004000D8
:10018000400040004000400040004000FE1F0000D2
:1001900000000000000000000BFE1F0600180060B9
:1001A00000800100028001600018000600FE1F00B0
:1001B0000000000000000008FE1F02010201020111
:1001C000020102018400780000000000000000002D
:1001D00000000000000009FE1F82008200820082F1
:1001E0000142023C04000800100000000000000072
:1001F0000000000000090200020002000200FE1FD1
:1002000002000200020002000000000000000000E6
:10021000000000000AFE0700080010001000100097
:1002200010001000100008FE070000000000000091
:1002300000000008F8070408021002100210021063
:100240000408F807000000000000000000000000A3
:100250000000070000000008100810FE1F0010003A
:10026000100000000000000000000000000000007E
:100270000008000004180214021202118210441037
:100280003810000000000000000000000000000026
:1002900008000004080210421042104210A408187E
:1002A000070000000000000000000000000000083F
:1002B000800140012001100108010401FE1F00011E
:1002C0000000000000000000000000000000080026
:1002D000003E08221022102210221042088207003D
:1002E0000000000000000000000000000008F0070F
:1002F0004808241022102210221042088007000013
:1003000000000000000000000000000008000002E3
:100310000002180206820162001A000600000000B6
:100320000000000000000000000000081807A408FA
:100330004210421042104210A408180700000000AA
:100340000000000000000000000008780084100297
:10035000110211021102098404F8030000000000D8
:1003600000000000000000000000F30B11241FBE7D
:10037000CFE5D2E0DEBFCDBF10E0A0E6B0E0E2E323
:10038000FFE102C005900D92A236B107D9F720E037
:10039000A2E6B0E001C01D92AA39B207E1F711E070
:1003A000C6EBD1E003C02197FE01BBDDC53BD10701
:1003B000D1F7C9D9BCCD24CEEF92FF920F931F93F2
:1003C000CF93DF93CDB7DEB70DB71EB7242F30E044
:1003D0002E5F3F4FEDB7FEB7E21BF30B0FB6F8945D
:1003E000FEBF0FBEEDBF2DB73EB72F5F3F4F790168
:1003F00098E79183F9018183442379F0A62FB72FE1
:1004000032962FEF240F30E02D5F3F4F2E0D3F1D12
:100410008D918193E217F307D9F762E0640FC7016A
:100420002CD80FB6F8941EBF0FBE0DBFDF91CF9131
:100430001F910F91FF90EF900895CF93DF931F923C
:10044000CDB7DEB7898341E0BE016F5F7F4F80E0AB
:10045000B3DF0F90DF91CF910895CF9388234CF0B5
:10046000C82F8093710081E2E8DF8C2FE6DF8FE7F1
:10047000E4DFCF910895CF93DF93803460F4C1E738
:10048000D0E0898382E2D9DF898186958695869539
:10049000D4DF87E0D2DFDF91CF910895CF93C62FCD
:1004A000DCDF8C2FE8DFCF910895CF93883060F4A4
:1004B000C82F880F880F880F8093720082E2BDDFFB
:1004C0008C2FBBDF87E0B9DFCF910895EF92FF92C9
:1004D0000F931F93CF93DF93CDB7DEB7C058D109E9
:1004E0000FB6F894DEBF0FBECDBFF82E60E080E0FF
:1004F000D5DF6894EE24E3F88E010F571F4F0DC02F
:10050000F1920E171F07E1F740E8BE016F5F7F4FC2
:1005100080E452DFEA94EE2019F0FE013196F0CF2C
:10052000C058DF4F0FB6F894DEBF0FBECDBFDF91CE
:10053000CF911F910F91FF90EF90089580E0C6DF5B
:100540000895F4D68EEA79DF85ED77DF80EF75DFE9
:1005500088EA73DF8FE371DF83ED6FDF80E06DDFAB
:100560008DE86BDF84E169DF80E467DF80E265DFCF
:1005700080E063DF81EA61DF88EC5FDF8AED5DDFC9
:1005800082E15BDF81E859DF8FEF57DF89ED55DFCF
:1005900081EF53DF8BED51DF80E24FDF84EA4DDFE7
:1005A00086EA4BDF8EE249DF8FEA47DF60E080E0DA
:1005B00075DFE1E7F0E086EA828317821682158212
:1005C00011821082BBDF08956623C4F04034B0F47A
:1005D000E1E7F0E0948383836583468350E04150F4
:1005E0005109CA0199230CF407969595879595951D
:1005F0008795959587958F5F8093780008952F92C2
:100600003F924F925F926F927F928F929F92AF92A2
:10061000BF92CF92DF92EF92FF920F931F93CF93EF
:10062000DF93CDB7DEB72E970FB6F894DEBF0FBEBF
:10063000CDBF282F4DB75EB75E874D8780ED820F07
:100640008A3008F42350E1E7F0E05081598381813A
:100650008E8337818581632F70E090E051DC2052DA
:10066000622F70E001964CDC98878F831C019FEF0E
:10067000291A390A0380F481E02D4F815885E40F4F
:10068000F51FC4908C2D90E09A87898701969B83F3
:100690008A83EDB7FEB7E81BF90B0FB6F894FEBFDF
:1006A0000FBEEDBF4DB75EB74F5F5F4F5C874B87A7
:1006B0002A015E815770E52E332309F467C0DE807E
:1006C000F12C0F2EF1E78F2EF0E09F2EF02D0FEF83
:1006D0000C0D10E00F5F1F4F040D151D88E090E01A
:1006E0003C01651A710889859A85840D951D9D8345
:1006F0008C838F2DFC2CC52EED2CD82E6E2D898150
:10070000CDDE91012D0D311DB90161507109FF2020
:1007100041F1F401A380B480478150E02A0D3B1DD4
:10072000D201F901849190E00C2C02C0880F991F2E
:100730000A94E2F7E82FDD2071F0F501E60FF71FCC
:10074000E491F0E0062C02C0F595E7950A94E2F7F3
:10075000E82B640F751FED93240F351FA017B10709
:1007600001F7EC81FD811082F8E0EF0E4A81B201C1
:1007700080E422DED394F4018781D81608F4BECF3A
:100780008D2DDE2CEC2CCF2CF82E02C0DE80F12C2F
:100790002E8126952695269530E040917700FE81A2
:1007A0008F2F90E0840F911D0197AC0112F4495FE7
:1007B0005F4F5595479555954795559547952417FE
:1007C000350709F440C04FE34D1508F43CC06D2DCA
:1007D000898164DE8F8198858F0D911DCC2039F140
:1007E000A1E7B0E017964C91179750E01396ED9162
:1007F000FC911497E80FF91FAB85BC852FEF2C0DEA
:1008000030E02F5F3F4F2A0F3B1F68E070E06E190A
:100810007109849190E0062E02C0959587950A94FF
:10082000E2F78D93E40FF51F2A173B0791F7EB854D
:10083000FC8589859A85E80FF91F10824A816B85AE
:100840007C8580E4B9DD89818F5F6E818C0D26DE29
:10085000ED85FE850FB6F894FEBF0FBEEDBF2E9658
:100860000FB6F894DEBF0FBECDBFDF91CF911F91C1
:100870000F91FF90EF90DF90CF90BF90AF909F903F
:100880008F907F906F905F904F903F902F90089542
:100890000F931F93CF93DF93EC0188818823D1F0CE
:1008A000E1E7F0E09081258130E0290F311D20380B
:1008B000310584F421968F0109C0F80190812581CA
:1008C00030E0290F311D2038310524F498DE89915C
:1008D0008111F3CFDF91CF911F910F9108951F9355
:1008E000CF93DF93CDB7DEB72C970FB6F894DEBF6A
:1008F0000FBECDBF611571058105910519F48DE21B
:100900007EDE3AC161157105810520E8920709F480
:1009100033C1FE0131962CE0DF011D922A95E9F7E3
:1009200020E32B872A87298728872F832E832D83EF
:100930002C832B832A83298399235CF49B01AC01AC
:1009400088279927DC01821B930BA40BB50B11E0C0
:1009500003C0DC01CB0110E081153AEC93073AE9C2
:10096000A3073BE3B3078CF021E301C0232F9A5C7C
:10097000AA49BB4331E0320F81154AEC94074AE99A
:10098000A4074BE3B40794F72A83811551EE95072A
:1009900055EFA50755E0B5078CF021E301C0232FE3
:1009A000915EA54FB54031E0320F811541EE9407BD
:1009B00045EFA40745E0B40794F72B83803856E948
:1009C000950758E9A507B1058CF021E301C0232F55
:1009D00080589649A849B10931E0320F803846E97C
:1009E000940748E9A407B10594F72C83803452E4B6
:1009F00095075FE0A507B1058CF021E301C0232F27
:100A000080549244AF40B10931E0320F803442E467
:100A100094074FE0A407B10594F72D83803A56E878
:100A2000950751E0A507B1058CF021E301C0232F04
:100A3000805A9648A140B10931E0320F803A46E829
:100A4000940741E0A407B10594F72E83803157E263
:100A50009507A105B10584F021E301C0232F805142
:100A60009742A109B10931E0320F803147E2940782
:100A7000A105B1059CF72F83883E53E09507A1059A
:100A8000B10584F021E301C0232F885E9340A109C2
:100A9000B10931E0320F883E43E09407A105B1056A
:100AA0009CF7288784369105A105B1057CF021E3E8
:100AB00001C0232F84569109A109B10931E0320FF9
:100AC00084369105A105B105A4F729878A309105DF
:100AD000A105B10574F021E301C0232F0A97A109F4
:100AE000B10931E0320F8A309105A105B105ACF7AB
:100AF0002A87181619061A061B060CF03BC0AC0113
:100B0000BD014150510961097109D9F7805D8B8799
:100B100031C0982F81E0890FE1E0F0E0EC0FFD1F7C
:100B2000E80FF11D20812033A1F3112331F0FE01E4
:100B3000E90FF11D8DE28183892F4AE0481B20E0F7
:100B400090E0E1E0F0E0EC0FFD1FE20FF11DDF01AE
:100B5000A80FB91F3C9130832F5F421790F7E1E057
:100B6000F0E0EC0FFD1FE20FF11D1082CE010196A7
:100B70008FDE02C090E0CECF2C960FB6F894DEBF89
:100B80000FBECDBFDF91CF911F9108958F929F929D
:100B9000AF92BF92CF92DF92EF92FF92CF936B0111
:100BA0007C01C42F20E030E0A90187D6811107C065
:100BB0008DE225DD82E223DD8DE221DD42C020E0F1
:100BC00030E040E05FECC701B6015ED78823CCF18E
:100BD00020E030E040E05FE4C701B6016ED6882334
:100BE00084F520E030E0A901C701B60166D688236C
:100BF00034F4F7FAF094F7F8F09481E200DDC701DD
:100C0000B6015FD66CDE82E2FADC6C2F70E080E029
:100C100090E088D69B01AC0160E070E080E291E456
:100C2000A2D74B015C01C701B60150D67BD69B0110
:100C3000AC01C701B601DCD5A501940129D741D685
:100C40004EDECF91FF90EF90DF90CF90BF90AF90AE
:100C50009F908F900895FC0160830895CF93DF9358
:100C6000D62FC42F60E470E082E690E073D26D2F3F
:100C700082E690E091D26C2F82E690E08DD261E026
:100C800082E690E069D2DF91CF910895CF93C62F8D
:100C900060E470E082E690E05DD26C2F82E690E046
:100CA0007BD261E082E690E057D2811112C021E050
:100CB00030E041E050E060E470E082E690E00CD388
:100CC00082E690E00BD3019731F482E690E013D3F3
:100CD00003C08FEF01C08FEFCF9108951F93CF9383
:100CE000DF93EC01162F67EED1DF8E77482F412B73
:100CF00066EECE01B3DF1883DF91CF911F91089587
:100D00001F93CF93DF93EC01162F67EEBFDF1430F4
:100D100019F01B3F19F003C0846001C08B7F482F7E
:100D200066EECE019BDFDF91CF911F910895CF93A7
:100D3000DF93EC0182E690E0F6D140EA56E861E00C
:100D400070E082E690E0F7D160E470E082E690E047
:100D500001D261E082E690E0FFD1811108C0688194
:100D6000CE01BCDF6BEFCE01CBDF81E001C080E0C4
:100D7000DF91CF91089580E177232CF4660F771FE0
:100D800091E3792702C0660F771F8150A9F7872F5B
:100D90000895FF920F931F93CF93DF938C01C62F7B
:100DA00060E470E082E690E0D5D16C2F82E690E0BE
:100DB000F3D161E082E690E0CFD1811172C0F801F9
:100DC00080818130D9F028F0803889F0813841F075
:100DD0001BC081E59CE10197F1F700C0000014C041
:100DE000E5EAFEE03197F1F700C000000DC089ECA4
:100DF00098E00197F1F700C0000006C0E7EEF3E0CD
:100E00003197F1F700C0000021E030E043E050E00E
:100E100060E470E082E690E05FD282E690E05ED22D
:100E2000039709F043C082E690E065D2D82FF0E046
:100E3000CF2F82E690E05FD2C82BD92B82E690E0DC
:100E40005AD2F82EBE01C80196DF8F1134C0BE0100
:100E500082E0682780E090E065D52DE434EF49EF2B
:100E60005AE316D620E030E040EC50E4C1D4062F1F
:100E7000172FD82FC92F20E030E0A9011ED58823D5
:100E8000FCF020E030E048EC52E4602F712F8D2F11
:100E90009C2FFAD51816CCF450E040E038EC22E450
:100EA00018C050E040E03FE723E413C050E040E0CA
:100EB0003FE723E40EC050E040E03FE723E409C0F1
:100EC00050E040E030E020E004C0502F412F3D2FA3
:100ED0002C2F652F742F832F922FDF91CF911F918D
:100EE0000F91FF900895EF92FF920F931F93CF936E
:100EF0008C01C62F60E470E082E690E02BD16C2F6D
:100F000082E690E049D161E082E690E025D181114E
:100F100061C0C03E31F1F80180818130A1F028F03C
:100F2000803851F08138B1F01EC081E093E501971F
:100F3000F1F700C000006EC0EDEFF9E23197F1F774
:100F400000C0000067C08BE795E10197F1F700C092
:100F5000000060C0EDEBFAE03197F1F700C000004F
:100F600059C082E001C083E0E82E880FFF0821E02D
:100F700030E0A70160E470E082E690E0ADD182E667
:100F800090E0ACD1E816F90651F582E690E0B3D1D5
:100F9000E12CF12CF82E82E690E0ADD1E82AF92A76
:100FA000C03E49F082E690E0A6D1C82FB701C80143
:100FB000E2DE8C1319C0B70180E090E0B3D427EBD8
:100FC00033EB4FE25BE364D526E636E64BE352E4CF
:100FD0000FD42FC060E070E08FE793E42AC060E098
:100FE00070E08FE793E425C060E070E08FE793E462
:100FF00020C060E070E08FE793E41BC082E690E0E1
:101000007AD1E12CF12CF82E82E690E074D1E82A16
:10101000F92AC8CF21E030E043E050E060E470E01E
:1010200082E690E059D182E690E058D1039709F723
:10103000E5CFCF911F910F91FF90EF9008958F9280
:101040009F92AF92BF92EF92FF920F931F93CF9315
:10105000DF937C014A015B0165EE9BDE062F172FB3
:10106000D82FC92F20E030E04EE753E4C501B4018A
:1010700024D4811105C063EEC70135DF4B015C014B
:1010800020E030E04FE753E4602F712F8D2F9C2F2D
:1010900014D4882381F120E030E04FE753E4C50108
:1010A000B4010BD4882361F120E030E0A901C5012F
:1010B000B401EAD4181644F520E030E040EA52E4E6
:1010C000C501B401FAD38823FCF4A501940160E0C2
:1010D00070E088EC91E48CD32AE939E949E15EEBD0
:1010E000D7D4202F312F4D2F5C2F83D3062F172FCE
:1010F000D82FC92F09C000E010E0DFE7C3E404C027
:1011000000E010E0DFE7C3E4602F712F8D2F9C2FEC
:10111000DF91CF911F910F91FF90EF90BF90AF9013
:101120009F908F9008951092650010926400109225
:101130006300FCD00895089581E080936300E091FE
:101140006000F0916100660F60838093650080937A
:1011500064000895F1DF0895462F60916400809146
:101160006000909161001ED11092650010926400A1
:101170001092630081110EC0E4D0853039F08630C2
:1011800019F0813029F4089582E0089583E00895EC
:1011900084E0089580E00895CF93809163008823D0
:1011A000B9F0809164008032E0F480916500E091B4
:1011B0006000F0916100E80FF11D6083809165008F
:1011C0008F5F809365008093640081E090E00EC0A3
:1011D000C62F7ED1882341F08C2F52D181E090E040
:1011E00005C080E090E002C080E090E0CF910895DB
:1011F0004F925F926F927F92AF92BF92CF92EF9297
:10120000FF920F931F93CF93DF935C01F62ED42FA1
:1012100028013901EE2009F18FDF8E2D843008F08E
:1012200083E0CFEFC80F8823A9F08C2F880F880F99
:10123000880FA301920104C05695479537952795CD
:101240008A95D2F7CA01B901C501A6DF8C2FC1501A
:101250008111EBCF60E0C5017FDFC1E0CD0FC1326E
:1012600008F0C0E2E0916000F09161008F2D880FDE
:10127000816080834C2D6C2F809160009091610083
:1012800091D091E090936500811105C081E0809339
:10129000640080E004C0C09364008FEF8C0FDF9186
:1012A000CF911F910F91FF90EF90CF90BF90AF9093
:1012B0007F906F905F904F900895CF92EF920F9331
:1012C0001F93C22EE12C00E010E0980191DF1F91E6
:1012D0000F91EF90CF900895F0DF08958091640012
:1012E000882331F090E020916500821B91090895D8
:1012F000E8D090E00895F2DF892BA9F08091640096
:10130000882371F020916500E0916000F091610008
:10131000E20FF11D808190E02F5F2093650008951A
:10132000BFD090E008958FEF9FEF0895C09AC29AC2
:10133000BA9AB89A8FEF8FB98AE28DB980EF8EB9D9
:1013400008958091790008958EB98BE297E09A957F
:10135000F1F78DB9B29BFECF93E09A95F1F70000BB
:101360008DB9769BF3CF87E08A95F1F78FB19FEF28
:101370009FB9B89A0895C098C29AB29BFECF83E0F5
:101380008A95F1F70000C09A87E08A95F1F79EB13F
:10139000892F807295FD04C098E09093790008959C
:1013A00081E00895FF920F931F93CF93DF93C62F91
:1013B000D42F21E020937900FC01208120FD04C07E
:1013C00021E0226020937900C29AB29BFECFF3E025
:1013D000FA95F1F70000C09823E02A95F1F7000094
:1013E000C298C09A779905C087E08093790080E021
:1013F0003EC08C01FF24FA9490917900937001F122
:10140000C298F80180818FB980EF9EDFB8988EEF87
:101410009BDF80FF0FC090917900892F817090FF32
:1014200005C086E08093790080E021C095E090932C
:1014300079001DC0809179008E7F809379000CC067
:10144000B89880EF81DFF8018083C13011F4FFB8D4
:1014500001C01FB88EEF78DFC1500F5F1F4FC11161
:10146000CBCFDD2319F087DF81E001C081E0DF9180
:10147000CF911F910F91FF90089541E093DF089560
:1014800020916B002F5F2F7090916A002917E1F374
:10149000E22FF0E0E657FF4F808320936B00089522
:1014A00090916C0080916D009817E1F3E0916C00D1
:1014B000EF5FEF70E0936C00F0E0E658FF4F808143
:1014C000089590916C0080916D00891B8F70089534
:1014D00090916B0080916A009F5F891B8F700895C7
:1014E0001F920F920FB60F9211241F932F933F93C9
:1014F0004F935F936F937F938F939F93AF93BF931C
:10150000CF93DF93EF93FF93C0916600D091670074
:10151000209761F010916D0080916C00181731F0E8
:10152000D0DF90E0FE01099510936C0010926E00E0
:10153000B898B29B05C0B09BFCCF88EA8DB902C0B9
:1015400088EF8DB980EF8EB9FF91EF91DF91CF9148
:10155000BF91AF919F918F917F916F915F914F91CB
:101560003F912F911F910F900FBE0F901F901895D4
:101570001F920F920FB60F9211241F932F933F9338
:101580004F935F936F937F938F939F93AF93BF938B
:10159000CF93DF93EF93FF9380916E00823009F435
:1015A0005FC028F4882359F08130D1F19BC084308A
:1015B00009F45EC060F1853009F478C093C08FB142
:1015C000882331F08FB1869590916F00891319C0EF
:1015D000789B0FC0E0916800F0916900309729F086
:1015E00080916B0080936A00099581E080936E0082
:1015F00003C084E080936E001FB8B89A8EE78EB95E
:1016000071C0B89888EA8DB980E78EB96BC08FB188
:10161000882331F0B89888EA8DB980E78EB962C026
:1016200090916A0080916B009817A1F080916A00F8
:101630008F5F8F7080936A00E0916A00F0E0E65758
:10164000FF4F80818FB982E080936E00B89A80E767
:101650008EB948C0B89888EA8DB980E78EB942C083
:1016600083E080936E00B8981FB88EE78EB93AC0B9
:1016700085E080936E00B89880E78EB9C0916600CF
:10168000D0916700209771F110916D0080916C00EE
:10169000181741F18EB18E7AE9F3759B23C011DFE3
:1016A00090E0FE01099510936C001CC084E08093CB
:1016B0006E002FB180916D008F5F8F7090916C00E4
:1016C000891769F080936D00E0916D00F0E0E658B5
:1016D000FF4F20831FB8B89A8EE78EB903C0B89821
:1016E0008EE78EB9FF91EF91DF91CF91BF91AF91CE
:1016F0009F918F917F916F915F914F913F912F912A
:101700001F910F900FBE0F901F9018958BE277D707
:1017100086E275D788E273D789E271D7089587E2A8
:101720006ED78CE26CD788E26AD70895EFDF81E24A
:1017300066D7F5DF80E263D788E261D78BE25FD7B7
:101740008AE25DD70895FDD640E16FE080EA90E03F
:101750003BD760E080E0A2D6E9DF80E07ED682E081
:10176000A4D6D4DF83E24BD780E249D780E075D698
:1017700085E09BD6D4DF83E242D780E240D780E782
:1017800090E0D5DA63EE80E790E0ADDB4B015C01E1
:1017900040E050E06EE773E480E790E050DC6B01DE
:1017A0007C0182E35AD682E080D641E0C501B401D3
:1017B000EDD980E224D785E222D782E34ED685E0B8
:1017C00074D641E0C701B601E1D980E218D784E2BE
:1017D00016D72FE78AE196E0215080409040E1F74C
:1017E00000C00000CFCF60E080E790E034DA0895D9
:1017F0005058BB27AA270ED00DC1FED030F003D120
:1018000020F031F49F3F11F41EF4F3C00EF4E09584
:10181000E7FBE9C0E92F0FD180F3BA17620773071E
:101820008407950718F071F49EF527C10EF4E09532
:101830000B2EBA2FA02D0B01B90190010C01CA018A
:10184000A0011124FF27591B99F0593F50F4503E35
:1018500068F11A16F040A22F232F342F4427585F27
:10186000F3CF469537952795A795F0405395C9F73F
:101870007EF41F16BA0B620B730B840BBAF09150F7
:10188000A1F0FF0FBB1F661F771F881FC2F70EC096
:10189000BA0F621F731F841F48F487957795679569
:1018A000B795F7959E3F08F0B3CF9395880F08F052
:1018B0009927EE0F97958795089571D008F481E0E8
:1018C000089504D06894B111D9C00895BCD088F0AF
:1018D0009F5790F0B92F9927B751A0F0D1F0660F1C
:1018E000771F881F991F1AF0BA95C9F712C0B13037
:1018F00081F0C3D0B1E00895C0C0672F782F88274A
:10190000B85F39F0B93FCCF3869577956795B39575
:10191000D9F73EF490958095709561957F4F8F4FE4
:101920009F4F0895E89409C097FB3EF490958095E9
:10193000709561957F4F8F4F9F4F9923A9F0F92F95
:1019400096E9BB279395F695879577956795B79513
:10195000F111F8CFFAF4BB0F11F460FF1BC06F5FF9
:101960007F4F8F4F9F4F16C0882311F096E911C00B
:10197000772321F09EE8872F762F05C0662371F02C
:1019800096E8862F70E060E02AF09A95660F771F40
:10199000881FDAF7880F9695879597F90895990F1C
:1019A0000008550FAA0BE0E8FEEF16161706E80729
:1019B000F907C0F012161306E407F50798F0621B4A
:1019C000730B840B950B39F40A2661F0232B242B1F
:1019D000252B21F408950A2609F4A140A6958FEF3E
:1019E000811D811D089597F99F6780E870E060E090
:1019F00008959FEF80EC089500240A9416161706A8
:101A000018060906089500240A94121613061406EF
:101A100005060895092E0394000C11F4882352F052
:101A2000BB0F40F4BF2B11F460FF04C06F5F7F4F0A
:101A30008F4F9F4F089557FD9058440F551F59F0F1
:101A40005F3F71F04795880F97FB991F61F09F3FAB
:101A500079F087950895121613061406551FF2CFD4
:101A60004695F1DF08C0161617061806991FF1CF24
:101A700086957105610508940895E894BB2766274B
:101A80007727CB0197F908958ADF08F48FEF08953F
:101A90000AD0C0CFB1DF28F0B6DF18F0952309F0E7
:101AA000A2CFA7CFEBCFC7DFA8F39923D9F3552354
:101AB000C9F3950F50E0551FAA27EE27FF27BB2734
:101AC00000240894679520F4E20FF31FB41F0A1E48
:101AD000220F331F441FAA1F6695A9F7779530F48C
:101AE000F30FB41F0A1E121E08F46395330F441F30
:101AF000AA1F221F769599F7879520F4B40F0A1E26
:101B0000121E631F440FAA1F221F331F8695A9F7B9
:101B1000862F712D602D11249F5750408AF0E1F0DF
:101B200088234AF0EE0FFF1FBB1F661F771F881F19
:101B300091505040A9F79E3F510570F054CF9ECF71
:101B40005F3FECF3983EDCF3869577956795B79504
:101B5000F795E7959F5FC1F7FE2B880F911D96952E
:101B6000879597F90895FA01EE0FFF1F309621052A
:101B7000310599F16115710561F48038BFE39B0768
:101B800049F168949038810561F08038BFEF9B0778
:101B900041F0992342F5FF3FE1053105210511F19F
:101BA000E8940894E795D901AA2329F4AB2FBE2F16
:101BB000F85FD0F310C0FF5F70F4A695E0F7F73937
:101BC00050F019F0FF3A38F49F779F930CD00F90A4
:101BD00007FC905808953EF00CCF60E070E080E87C
:101BE0009FE308954FE79F775F934F933F932F9322
:101BF0009ED02F913F914F915F914ADF05C019F41C
:101C00000EF0F1CE3ACFF5CE1EDFC8F39638C0F70E
:101C100007F80F92E8942BE33AEA48EB5FE745DFD9
:101C20000F920F920F924DB75EB70F92C0D0EEE1B8
:101C3000F0E016D04F915F91EF91FF91E595EE1F87
:101C4000FF1F49F0FE57E0684427EE0F441FFA9546
:101C5000E1F74195550B32D00F9007FE26C008954D
:101C6000DF93CF931F930F93FF92EF92DF927B014D
:101C70008C01689405C0DA2EEF0115DFFE01E894AF
:101C8000A5912591359145915591AEF3EF01C2DDB6
:101C9000FE019701A801DA9479F7DF90EF90FF90A9
:101CA0000F911F91CF91DF9108959B01AC0160E0EE
:101CB00070E080E89FE3AEC096CE14C1C4DEE8F3C6
:101CC0009923D9F3940F511DBBF39150504094F0D8
:101CD00059F0882332F0660F771F881F91505040CB
:101CE000C1F79E3F510544F7880F911D9695879542
:101CF00097F908955F3FACF0983E9CF0BB2786951E
:101D000077956795B79508F4B1609395C1F7BB0FC8
:101D100058F711F460FFE8CF6F5F7F4F8F4F9F4FF1
:101D2000E3CFACCE0EF0DEC064CE68945CCE8BDE2A
:101D3000C8F39923D1F3C6F3DF93CF931F930F9387
:101D4000FF92C92FDD2788232AF02197660F771F7E
:101D5000881FDAF720E030E040E85FEB9FE3883946
:101D600020F0803E30F021968F7743DDE6E4F0E00E
:101D700003C03FDDE3E7F0E073DF8B01BE01EC0160
:101D8000FB2E6F5771097595771F880B990BCCDD6A
:101D900028E132E741E35FE386DEAF2D9801AE0133
:101DA000FF900F911F91CF91DF9134DD33CEFA0177
:101DB000DC01AA0FBB1F9B01AC01BF5728F42227EF
:101DC0003327442750781FC0B75188F4AB2F002425
:101DD000469537952795011CA395D2F3002069F00D
:101DE000220F331F441FB395DAF30DD001CD6130BC
:101DF0007105A0E88A07B94630F49B01AC0166275B
:101E0000772788279078309621F02083318342838A
:101E1000538308950CD0FECDF6DD40F0EDDD30F0BB
:101E200021F45F3F19F0DFCD511128CEE2CD03DE62
:101E300098F39923C9F35523B1F3951B550BBB2791
:101E4000AA2762177307840738F09F5F5F4F220F3E
:101E5000331F441FAA1FA9F333D00E2E3AF0E0E837
:101E600030D091505040E695001CCAF729D0FE2F83
:101E700027D0660F771F881FBB1F26173707480715
:101E8000AB07B0E809F0BB0B802DBF01FF279358CB
:101E90005F4F2AF09E3F510568F0A5CDEFCD5F3F23
:101EA000ECF3983EDCF3869577956795B795F795B3
:101EB0009F5FC9F7880F911D9695879597F90895AB
:101EC000E1E0660F771F881FBB1F62177307840747
:101ED000BA0720F0621B730B840BBA0BEE1F88F756
:101EE000E09508959F3F31F0915020F487957795C4
:101EF0006795B795880F911D9695879597F90895E1
:101F00000024552704C0080E591F880F991F0097F9
:101F100029F076956795B8F37105B9F7802D952F5F
:101F20000895EE0FFF1F0590F491E02D0994F894A9
:021F3000FFCFE1
:021F32007A0033
:00000001FF
