:10000000B4C1CEC1CDC1CCC1CBC1CAC1C9C1C8C1A7
:10001000C7C1C6C1C5C1C4C196CB97CADECA0763F2
:100020004236B79BD8A71A39685618AEBAAB558C6A
:100030001D3CB7CC5763BD6DEDFD753EF6177231B3
:10004000BF000000803F08000000BE922449123E1D
:10005000ABAAAA2ABECDCCCC4C3E00000080BEABE1
:10006000AAAAAA3E00000000BF000000803F0000D6
:10007000000000084178D3BB4387D1133D190E3CE3
:10008000C3BD4282AD2B3E68EC8276BED98FE1A91A
:100090003E4C80EFFFBE01C4FF7F3F000000000028
:1000A0000800000000000000000000000000000048
:1000B000000000000000000000000000000000053B
:1000C00080008000800080008000000000000000B0
:1000D000000000000000000000000000000003001D
:1000E00000000000180000000000000000000000F8
:1000F00000000000000000000000000000030000FD
:1001000000003018000000000000000000000000A7
:100110000000000000000000000000000F00007C54
:1001200000820082008210820C7C028001600090BC
:100130000F4C10421040104010800F09F0030C0CBF
:10014000040802100210021002100210040800003D
:100150000000000000000000000008FE1F421042E6
:1001600010421042104210421042100000000000E5
:100170000000000000000000000AFE1F40004000D8
:10018000400040004000400040004000FE1F0000D2
:1001900000000000000000000BFE1F0600180060B9
:1001A00000800100028001600018000600FE1F00B0
:1001B0000000000000000008FE1F02010201020111
:1001C000020102018400780000000000000000002D
:1001D00000000000000009FE1F82008200820082F1
:1001E0000142023C04000800100000000000000072
:1001F0000000000000090200020002000200FE1FD1
:1002000002000200020002000000000000000000E6
:10021000000000000AFE0700080010001000100097
:1002200010001000100008FE070000000000000091
:1002300000000008F8070408021002100210021063
:100240000408F807000000000000000000000000A3
:100250000000070000000008100810FE1F0010003A
:10026000100000000000000000000000000000007E
:100270000008000004180214021202118210441037
:100280003810000000000000000000000000000026
:1002900008000004080210421042104210A408187E
:1002A000070000000000000000000000000000083F
:1002B000800140012001100108010401FE1F00011E
:1002C0000000000000000000000000000000080026
:1002D000003E08221022102210221042088207003D
:1002E0000000000000000000000000000008F0070F
:1002F0004808241022102210221042088007000013
:1003000000000000000000000000000008000002E3
:100310000002180206820162001A000600000000B6
:100320000000000000000000000000081807A408FA
:100330004210421042104210A408180700000000AA
:100340000000000000000000000008780084100297
:10035000110211021102098404F8030000000000D8
:100360000000000000000000000011241FBECFE5C7
:10037000D2E0DEBFCDBF10E0A0E6B0E0E8EFFFE1E5
:1003800002C005900D92A236B107D9F720E0A2E68F
:10039000B0E001C01D92A939B207E1F71EDA2ACEFA
:1003A0002FCEEF92FF920F931F93CF93DF93CDB792
:1003B000DEB70DB71EB7242F30E02E5F3F4FADB72D
:1003C000BEB7A21BB30B0FB6F894BEBF0FBEADBF36
:1003D000EDB7FEB731967F0198E711969C93818324
:1003E000362F8DB79EB70396FB012E2F231B2417A4
:1003F00028F42191DC012D93CD01F7CF62E0640F49
:10040000C70171D80FB6F8941EBF0FBE0DBFDF91A4
:10041000CF911F910F91FF90EF900895CF93DF93AD
:100420001F92CDB7DEB7898341E0BE016F5F7F4F7A
:1004300080E0B7DF0F90DF91CF910895CF9387FDD4
:100440000AC0C82F8093700081E2E8DF8C2FE6DFBE
:100450008FE7CF91E3CFCF910895803460F48093FC
:10046000710082E2DBDF809171008695869586952A
:10047000D5DF87E0D3CF0895CF93C62FDFDF8C2F52
:10048000CF91EBCFCF93883068F4C82F880F880FB7
:10049000880F8093710082E2C1DF8C2FBFDF87E07D
:1004A000CF91BCCFCF9108952F923F924F925F9200
:1004B0006F927F928F929F92AF92BF92CF92DF9274
:1004C000EF92FF920F931F93CF93DF9300D01F9271
:1004D000CDB7DEB7282E4DB65EB687FD9FC047FD6F
:1004E0009DC0603408F09AC0203408F097C06DB603
:1004F0007EB62F5F322E361A4F5F142F181B862FB1
:100500008770681B69832DB73EB7211B31090FB671
:10051000F8943EBF0FBE2DBFEDB7FEB731966F0109
:10052000A32CB12C28E030E0A901481B5109A416E6
:10053000B5066CF42A193B094FEF50E07A0102C06E
:10054000F594E7942A95E2F79E2D3A8204C098E04C
:10055000981B9A839FEFE92E01C0EE0C8A95EAF76B
:10056000FE2C6981822D88DF4601F60180E0CB8276
:10057000E0949E2F9C19911738F40F3F11F48F29A6
:1005800001C08E218193F5CF412FB60180E409DFB0
:10059000F980EA80EF182E2D2F0D822F90E0AC010C
:1005A000495F5F4F4A155B0594F4F8E0FF0E6F2D2D
:1005B000822D62DFF6018E2F2B81821B811710F4B2
:1005C0000193F9CF412FB60180E4EBDEE4CF231590
:1005D00000F5A81AB90A8FEF90E001C0880FAA941D
:1005E000EAF7E82EE09468E06F0D822D45DF0F3FBB
:1005F00011F48E2D01C080E0982DFB819F1B911777
:1006000020F4F40181934F01F7CF412FB60180E42C
:10061000C8DE0FB6F8947EBE0FBE6DBE0FB6F8945E
:100620005EBE0FBE4DBE0F900F900F90DF91CF9129
:100630001F910F91FF90EF90DF90CF90BF90AF9000
:100640009F908F907F906F905F904F903F902F90F2
:1006500008957F928F929F92AF92BF92CF92DF9236
:10066000EF92FF920F931F93CF93DF931F92CDB71B
:10067000DEB787FD49C047FD47C0603408F044C07D
:10068000203408F041C0D22EF42E062FE82E962FEB
:10069000977081E0C82E01C0CC0C9A95EAF7922F92
:1006A0009770782E01C0770C9A95EAF71E2D812C51
:1006B000912C54018394F11638F11982602F812F07
:1006C000DBDE99811E1102C0802F05C01F15E1F3EA
:1006D00097299C2910C0D81670F0282F2770B501D3
:1006E000A40104C0440F551F661F771F2A95D2F737
:1006F000942B8F5FF0CF998341E0BE016F5F7F4FF6
:1007000080E44FDE1F5FD7CF0F90DF91CF911F9115
:100710000F91FF90EF90DF90CF90BF90AF909F90A0
:100720008F907F9008950F931F93CF93DF93CDB752
:10073000DEB7C058D1090FB6F894DEBF0FBECDBFEB
:10074000082F60E080E098DE18E0FE01319680E03E
:10075000BF0101938F5F8038E1F740E880E421DE3C
:10076000115099F7C058DF4F0FB6F894DEBF0FBE97
:10077000CDBFDF91CF911F910F91089580E0D3CF2E
:1007800015D68EEA4BDE85ED49DE80EF47DE88EA3E
:1007900045DE8FE343DE83ED41DE80E03FDE8DE822
:1007A0003DDE84E13BDE80E439DE80E237DE80E05E
:1007B00035DE81EA33DE88EC31DE8AED2FDE82E140
:1007C0002DDE81E82BDE8FEF29DE89ED27DE81EF3C
:1007D00025DE8BED23DE80E221DE84EA1FDE86EA61
:1007E0001DDE8EE21BDE8FEA19DE60E080E044DE73
:1007F000E0E7F0E086EA8283178216821582118292
:100800001082BCCF0F9350DE0F91089567FD17C083
:100810004034A8F490937400809373006093750043
:100820004093760050E0CA01019797FD079623E0B8
:10083000959587952A95E1F78F5F809377000895C6
:100840002F923F924F925F926F927F928F929F92E0
:10085000AF92BF92CF92DF92EF92FF920F931F93CE
:10086000CF93DF93CDB7DEB729970FB6F894DEBFED
:100870000FBECDBF282F4DB65EB680ED820F8A30F9
:1008800008F4235090907000809071008091750062
:100890006091770070E090E09CDB2052622F70E066
:1008A000019697DB7C019C012F5F3F4F3C832B839C
:1008B000E0917300F0917400E80FF91FD490AD2C13
:1008C000B12CC50101969A838983EDB7FEB7E81B69
:1008D000F90B0FB6F894FEBF0FBEEDBF0DB71EB7F4
:1008E0000F5F1F4FF82DF7706F2E782CC12C0D83E2
:1008F00088E090E09C012F1B31093F832E83C801C3
:100900008A0D9B1D9987888780917700C81608F00B
:1009100040C0672D892DB0DD2B813C812C0D311D10
:10092000A9014150510920907300309074006091EA
:10093000770070E0220D331DD8018A2FFD818F1BB7
:100940008D15E0F4F9018491062C01C0880F0A94FA
:10095000EAF7E82FCC2071F0F101E40FF51FE491E4
:10096000F0E00E8002C0F595E7950A94E2F7E82BD7
:10097000460F571FED93260F371FDFCFE885F98508
:100980001082F8E07F0E4981B80180E40ADDC3944B
:10099000BBCF482D46954695469550E08091760010
:1009A000282D30E0280F311DC901019797FD0796CA
:1009B00023E0959587952A95E1F74817590779F12E
:1009C0002FE3271560F1672D892D56DD8091770083
:1009D00090E0EC0CF11CE0917300F0917400EE0DCE
:1009E000FF1D602FD80148E050E0461951092A2F19
:1009F000261B2D1560F4249130E0042E02C035959D
:100A000027950A94E2F72D93E80FF91FF0CFF8012C
:100A1000EA0DFB1D10824981B80180E4C2DC81E04F
:100A2000890D682D8D0D28DD0FB6F8945EBE0FBEC2
:100A30004DBE29960FB6F894DEBF0FBECDBFDF9135
:100A4000CF911F910F91FF90EF90DF90CF90BF90CB
:100A5000AF909F908F907F906F905F904F903F905E
:100A60002F900895CF93DF93EC018991882361F053
:100A7000909170002091750030E0290F311D2038D1
:100A8000310514F4DDDEF1CFDF91CF9108950F939E
:100A90001F93CF93DF93CDB7DEB72C970FB6F894A3
:100AA000DEBF0FBECDBF611571058105910519F43B
:100AB0008DE2C6DEDDC061157105810500E8900795
:100AC00009F4D6C0FE0131962CE0DF011D922A9573
:100AD000E9F720E3298397FF0BC08B019C01442792
:100AE0005527BA01401B510B620B730B91E003C0F9
:100AF000AB01BC0190E080E321E0280F41151AEC26
:100B000051071AE961071BE371072CF05A5C6A4927
:100B10007B43822FF1CF8A8380E321E0280F4115A8
:100B200031EE530735EF630735E073072CF0515E64
:100B3000654F7540822FF1CF8B8380E321E0280F32
:100B40004038A6E95A07A8E96A07710534F0405809
:100B5000564968497109822FF1CF8C8380E321E0E7
:100B6000280F4034B2E45B07BFE06B07710534F037
:100B7000405452446F407109822FF1CF8D8380E33E
:100B800021E0280F403A06E8500701E060077105B0
:100B900034F0405A564861407109822FF1CF8E835C
:100BA00080E321E0280F403117E25107610571050C
:100BB00034F04051574261097109822FF2CF8F837F
:100BC00080E321E0280F483E33E0530761057105BB
:100BD00034F0485E534061097109822FF2CF888753
:100BE00080E321E0280F443651056105710534F09A
:100BF0004456510961097109822FF3CF898780E337
:100C000021E0280F4A3051056105710534F04A5042
:100C1000510961097109822FF3CF8A87405D4B87A3
:100C200020E0DF01A20FB11D8C91803311F42F5F02
:100C3000F8CF992331F02150DF01A20FB11D8DE2D1
:100C40008C939AE0921B80E030E0BF01680F711D29
:100C5000AB01420F531FDA014C91DB014C938F5FC4
:100C6000981798F7DF01A80FB11D1C92CF01FADE8B
:100C70002C960FB6F894DEBF0FBECDBFDF91CF919B
:100C80001F910F9108958F929F92AF92BF92CF9232
:100C9000DF92EF92FF92CF936B017C01C42F20E093
:100CA00030E0A90173D681110FC08DE2C9DD82E267
:100CB000C7DD8DE2CF91FF90EF90DF90CF90BF9096
:100CC000AF909F908F90BCCD20E030E040E05FEC93
:100CD000C701B60142D787FD42C020E030E040E0C6
:100CE0005FE4C701B60152D687FF39C020E030E08B
:100CF000A901C701B6014AD687FF06C0F7FAF094EA
:100D0000F7F8F09481E29CDDC701B60143D6BFDE5F
:100D100082E296DD6C2F70E080E090E06CD69B0163
:100D2000AC0160E070E080E291E486D74B015C01A9
:100D3000C701B60134D65FD69B01AC01C701B6012D
:100D4000C0D5A50194010DD725D6CF91FF90EF9086
:100D5000DF90CF90BF90AF909F908F9098CECF9123
:100D6000FF90EF90DF90CF90BF90AF909F908F90CB
:100D7000089560C2FC0160830895CF93DF93D62F5E
:100D8000C42F60E470E082E690E033D26D2F82E6FB
:100D900090E050D26C2F82E690E04CD261E082E687
:100DA00090E0DF91CF9126C2CF93C62F60E470E030
:100DB00082E690E01ED26C2F82E690E03BD261E0AA
:100DC00082E690E017D2882311F08FEF11C021E066
:100DD00030E041E050E060E470E082E690E0BDD2B7
:100DE00082E690E0BBD2019781F782E690E0C3D221
:100DF000CF9108951F93CF93DF93EC01162F67EEE9
:100E0000D3DF8E77482F412B66EECE01B6DF1883F5
:100E1000DF91CF911F91089567EEC6DF86FB88278B
:100E200080F991E0892708951F93CF93DF93EC0118
:100E3000162F67EEB9DF143021F01B3F19F48B7FBA
:100E400001C08460482F66EECE01DF91CF911F91E3
:100E500094CFCF93DF93EC0182E690E0B4D140EAE7
:100E600056E861E070E082E690E0B4D160E470E0C2
:100E700082E690E0BED161E082E690E0BBD18111D4
:100E800008C06881CE01B6DF6BEFCE01CDDF81E017
:100E900001C080E0DF91CF91089580E19B01220F96
:100EA000331F77FF04C0B90191E3792701C0B9016D
:100EB0008150A1F7872F0895CF92DF92EF92FF9292
:100EC0000F931F93CF93DF938C01C62F60E470E0E4
:100ED00082E690E08ED16C2F70E082E690E049DFF0
:100EE00061E082E690E086D1882329F020E070E07E
:100EF0008FE793E471C0F80180818130A1F048F060
:100F0000803861F08138A9F4E5EAFEE03197F1F725
:100F10000EC081E59CE10197F1F709C089EC98E0EA
:100F20000197F1F704C0E7EEF3E03197F1F700C065
:100F3000000021E030E043E050E060E470E082E651
:100F400090E00BD282E690E009D2039779F682E630
:100F500090E011D2D82FF0E0CF2F82E690E00BD2B4
:100F6000C82BD92B82E690E006D2F82EBE01C8012C
:100F700094DF8F11BBCFBE0182E0682780E090E054
:100F80003AD52DE434EF49EF5AE3EBD520E030E0D9
:100F900040EC50E496D48B01D82FC92F20E030E0EC
:100FA000A901F4D487FD0FC020E030E048EC52E402
:100FB000B8018D2F9C2FD1D5181654F420E070E085
:100FC00088EC92E409C020E070E080E090E004C08A
:100FD000202F712F8D2F9C2FC22ED72E7C01C70161
:100FE000B601DF91CF911F910F91FF90EF90DF90AD
:100FF000CF900895EF92FF921F93CF93DF937C01E0
:10100000162F60E470E082E690E0F3D0612F70E08C
:1010100082E690E0AEDE61E082E690E0EBD08823ED
:1010200029F060E070E08FE793E45BC0103EF9F0D8
:10103000F70180818130A1F048F0803861F081387B
:10104000C1F4EDEBFAE03197F1F70EC081E093E5E2
:101050000197F1F709C0EDEFF9E23197F1F704C01C
:101060008BE795E10197F1F700C0000002C0C2E0F4
:1010700001C0C3E00C2E000CDD0B21E030E0AE011E
:1010800060E470E082E690E068D182E690E066D1AC
:10109000C817D90731F682E690E06DD1D82FF0E07D
:1010A000CF2F82E690E067D1C82BD92B103E79F480
:1010B000BE0180E090E09FD427EB33EB4FE25BE38F
:1010C00050D526E636E64BE352E4FBD30AC082E66F
:1010D00090E051D1182FBE01C701DFDE8113A1CFEF
:1010E000E7CFDF91CF911F91FF90EF900895AF92DE
:1010F000BF92CF92DF92EF92FF920F931F93CF9305
:10110000DF935C016A017B0165EED6DE8B01D82F8F
:10111000C92F20E030E04EE753E4C701B60136D4D2
:10112000811105C063EEC50165DF6B017C0120E024
:1011300030E04FE753E4B8018D2F9C2F27D488234C
:1011400059F120E030E04FE753E4C701B6011ED467
:10115000882311F120E030E0A901C701B601FDD4D8
:101160001816FCF420E030E040EA52E4C701B60172
:101170000DD487FF16C0A701960160E070E088ECEF
:1011800091E49FD32AE939E949E15EEBEAD4980179
:101190004D2F5C2F97D308C060E070E08FE793E499
:1011A00003C0B8018D2F9C2F6B017C01C701B601D4
:1011B000DF91CF911F910F91FF90EF90DF90CF9033
:1011C000BF90AF9008951092650010926400109245
:1011D0006300ECC0089581E080936300E0916000BB
:1011E000F0916100660F60838093650080936400D6
:1011F0000895F1CF462F6091640080916000909136
:10120000610010D11092650010926400109263008A
:1012100081110EC0D6D0853039F0863019F081307A
:1012200029F4089582E0089583E0089584E0089504
:1012300080E00895CF93809163008823C1F080916E
:101240006400803218F080E090E019C08091650061
:10125000E0916000F0916100E80FF11D60838091E2
:1012600065008F5F809365008093640006C0C62F81
:1012700064D1882341F38C2F38D181E090E0CF9165
:1012800008954F925F926F927F92AF92BF92CF92EA
:10129000EF92FF920F931F93CF93DF935C01F62E93
:1012A000C42F28013901EE20E1F095DFDE2DD43086
:1012B00008F0D3E0D15090F08D2F880F880F880F61
:1012C000A301920104C056954795379527958A95B5
:1012D000D2F7CA01B901C501ADDFECCF60E0C501AD
:1012E00089DFCF5FC13208F0C0E2E0916000F09189
:1012F00061008F2D880F816080834C2D6C2F809131
:101300006000909161008ED091E090936500811112
:1013100003C09093640004C0C09364008FEF8C0FEF
:10132000DF91CF911F910F91FF90EF90CF90BF90E1
:10133000AF907F906F905F904F900895CF92EF9213
:101340000F931F93C22EE12C00E010E0980199DF6B
:101350001F910F91EF90CF900895F0CF809164008E
:10136000882331F090E020916500821B9109089557
:10137000DDD090E00895F2DF892BA9F08091640020
:10138000882371F020916500E0916000F091610088
:10139000E20FF11D808190E02F5F2093650008959A
:1013A000B4D090E008958FEF9FEF0895C09AC29A4D
:1013B000BA9AB89A8FEF8FB98AE28DB980EF8EB959
:1013C00008958091780008958EB98BE297E09A9500
:1013D000F1F78DB9B29BFECF93E09A95F1F700003B
:1013E0008DB9769BF3CF87E08A95F1F78FB19FEFA8
:1013F0009FB9B89A0895C098C29AB29BFECF83E075
:101400008A95F1F70000C09A87E08A95F1F79EB1BE
:10141000892F807295FD04C098E09093780008951C
:1014200081E00895FF920F931F93CF93DF93162FC0
:10143000042F21E020937800FC01208120FD03C0CF
:1014400023E020937800C29AB29BFECFF3E0FA9596
:10145000F1F70000C09823E02A95F1F70000C29848
:10146000C09A779902C087E018C0EC01FF24FA9473
:10147000809178008370F9F0C29888818FB980EFED
:10148000A3DFB8988EEFA0DF80FF0FC090917800A7
:10149000892F817090FF05C086E08093780080E0FE
:1014A0001CC095E09093780018C0809178008E7FE2
:1014B000809378000BC0B89880EF86DF8883113066
:1014C00011F4FFB801C01FB88EEF7EDF11502196D6
:1014D0001111CECF01118FDF81E0DF91CF911F91EC
:1014E0000F91FF90089541E09DCF90916B009F5F19
:1014F0009F7020916A009217E1F3E92FF0E0E7571F
:10150000FF4F808390936B00089590916C008091C1
:101510006D009817E1F3E0916C00EF5FEF70E093DE
:101520006C00F0E0E758FF4F8081089590916C00C7
:1015300080916D00891B8F70089590916B00809150
:101540006A009F5F891B8F7008951F920F920FB6DC
:101550000F9211240F931F932F933F934F935F93F9
:101560006F937F938F939F93AF93BF93CF93EF939B
:10157000FF9300916600109167000115110561F05D
:10158000C0916D0080916C00C81731F0CFDF90E002
:10159000F8010995C0936C0010926E00B898B29B48
:1015A00004C0B09BFCCF88EA01C088EF8DB980EF02
:1015B0008EB9FF91EF91CF91BF91AF919F918F9194
:1015C0007F916F915F914F913F912F911F910F915B
:1015D0000F900FBE0F901F9018951F920F920FB68D
:1015E0000F9211240F931F932F933F934F935F9369
:1015F0006F937F938F939F93AF93BF93CF93EF930B
:10160000FF9380916E00823009F44CC028F4882347
:1016100059F0813051F183C0843009F449C010F190
:10162000853009F464C07BC08FB1882331F08FB15D
:10163000869590916F00891330C0789B0DC0E09122
:101640006800F0916900309729F080916B008093D9
:101650006A00099581E001C084E080936E001FB8A4
:10166000B89A5BC08FB1811118C090916A008091C7
:101670006B00981791F080916A008F5F8F70809354
:101680006A00E0916A00F0E0E757FF4F80818FB970
:1016900082E080936E00B89A03C0B89888EA8DB94A
:1016A00080E73CC083E080936E00B8981FB835C0D7
:1016B00085E080936E00B89880E78EB9009166004F
:1016C000109167000115110551F1C0916D008091D5
:1016D0006C00C81721F18EB18E7AE9F3759B1FC09B
:1016E00025DF90E0F8010995C0936C0018C084E0F4
:1016F00080936E009FB180916D008F5F8F702091FD
:101700006C00821749F080936D00E0916D00F0E06D
:10171000E758FF4F9083A3CFB8988EE78EB9FF911B
:10172000EF91CF91BF91AF919F918F917F916F91E9
:101730005F914F913F912F911F910F910F900FBE8D
:101740000F901F9018951F920F920FB60F921124B1
:101750000F900FBE0F901F90189584B7877F84BF9E
:10176000F89481B5886181BD81E281BD789481B5AD
:10177000806481BD08958BE263D886E261D888E2F7
:101780005FD889E25DC887E25BD88CE259D888E2ED
:1017900057C8F1DF81E254D8F6DF80E251D888E201
:1017A0004FD88BE24DD88AE24BC80F930FEF27E05A
:1017B0004DE766E0882349F08CE724D82CE04FE71A
:1017C00068E08AE71FD80F9108958CE71BD82CE0BA
:1017D0004FE768E08AE70F913CC7CF93DF931F92F2
:1017E000CDB7DEB787EA91E60197F1F700C00000B8
:1017F000C7D740E16FE080EA90E008D860E080E081
:101800003BD6C7DF80E01AD682E03CD6B4DF83E265
:1018100017D880E215D880E011D685E033D6B3DF43
:1018200083E20ED880E20CD860E0CE010196A2DA05
:10183000CE0101960EDB91DF0FEF2FE34FE76EE352
:101840008EE7E0D7CE010196E7DA182F63EECE01DE
:101850000196D0DB4B015C0140E050E06EE773E4A1
:10186000CE01019644DC6B017C01812F9EDF82E377
:10187000E5D582E007D641E0C501B40104DA80E293
:10188000DFD785E2DDD782E3D9D585E0FBD541E01E
:10189000C701B601F8D980E2D3D784E2D1D700E0FE
:1018A0002FE34FE76EE38EE7ADD785B7877E806184
:1018B00085BF85B7806285BF889585B78F7D85BFD9
:1018C000BBCF5058BB27AA270ED00DC1FED030F099
:1018D00003D120F031F49F3F11F41EF4F3C00EF455
:1018E000E095E7FBE9C0E92F0FD180F3BA17620753
:1018F00073078407950718F071F49EF527C10EF45D
:10190000E0950B2EBA2FA02D0B01B90190010C010F
:10191000CA01A0011124FF27591B99F0593F50F427
:10192000503E68F11A16F040A22F232F342F44277F
:10193000585FF3CF469537952795A795F040539577
:10194000C9F77EF41F16BA0B620B730B840BBAF047
:101950009150A1F0FF0FBB1F661F771F881FC2F7B2
:101960000EC0BA0F621F731F841F48F487957795C6
:101970006795B795F7959E3F08F0B3CF9395880F7D
:1019800008F09927EE0F97958795089571D008F480
:1019900081E0089504D06894B111D9C00895BCD0F5
:1019A00088F09F5790F0B92F9927B751A0F0D1F048
:1019B000660F771F881F991F1AF0BA95C9F712C0D2
:1019C000B13081F0C3D0B1E00895C0C0672F782F47
:1019D0008827B85F39F0B93FCCF38695779567953E
:1019E000B395D9F73EF490958095709561957F4FAA
:1019F0008F4F9F4F0895E89409C097FB3EF4909550
:101A00008095709561957F4F8F4F9F4F9923A9F0D7
:101A1000F92F96E9BB279395F69587957795679566
:101A2000B795F111F8CFFAF4BB0F11F460FF1BC0AA
:101A30006F5F7F4F8F4F9F4F16C0882311F096E93D
:101A400011C0772321F09EE8872F762F05C06623EB
:101A500071F096E8862F70E060E02AF09A95660FA4
:101A6000771F881FDAF7880F9695879597F908955D
:101A7000990F0008550FAA0BE0E8FEEF161617069F
:101A8000E807F907C0F012161306E407F50798F007
:101A9000621B730B840B950B39F40A2661F0232B20
:101AA000242B252B21F408950A2609F4A140A6959C
:101AB0008FEF811D811D089597F99F6780E870E081
:101AC00060E008959FEF80EC089500240A941616B4
:101AD000170618060906089500240A94121613061C
:101AE000140605060895092E0394000C11F48823AA
:101AF00052F0BB0F40F4BF2B11F460FF04C06F5FC6
:101B00007F4F8F4F9F4F089557FD9058440F551F9B
:101B100059F05F3F71F04795880F97FB991F61F06F
:101B20009F3F79F087950895121613061406551FE6
:101B3000F2CF4695F1DF08C0161617061806991F52
:101B4000F1CF86957105610508940895E894BB2747
:101B500066277727CB0197F908958ADF08F48FEF7E
:101B600008950AD0C0CFB1DF28F0B6DF18F0952372
:101B700009F0A2CFA7CFEBCFC7DFA8F39923D9F302
:101B80005523C9F3950F50E0551FAA27EE27FF27CD
:101B9000BB2700240894679520F4E20FF31FB41FBD
:101BA0000A1E220F331F441FAA1F6695A9F77795B7
:101BB00030F4F30FB41F0A1E121E08F46395330F9E
:101BC000441FAA1F221F769599F7879520F4B40F1A
:101BD0000A1E121E631F440FAA1F221F331F869561
:101BE000A9F7862F712D602D11249F5750408AF040
:101BF000E1F088234AF0EE0FFF1FBB1F661F771F1F
:101C0000881F91505040A9F79E3F510570F054CF66
:101C10009ECF5F3FECF3983EDCF386957795679512
:101C2000B795F795E7959F5FC1F7FE2B880F911D3C
:101C30009695879597F90895FA01EE0FFF1F309654
:101C40002105310599F16115710561F48038BFE313
:101C50009B0749F168949038810561F08038BFEFA7
:101C60009B0741F0992342F5FF3FE105310521052E
:101C700011F1E8940894E795D901AA2329F4AB2F30
:101C8000BE2FF85FD0F310C0FF5F70F4A695E0F7A9
:101C9000F73950F019F0FF3A38F49F779F930CD042
:101CA0000F9007FC905808953EF00CCF60E070E074
:101CB00080E89FE308954FE79F775F934F933F93AB
:101CC0002F939ED02F913F914F915F914ADF05C096
:101CD00019F40EF0F1CE3ACFF5CE1EDFC8F39638E8
:101CE000C0F707F80F92E8942BE33AEA48EB5FE776
:101CF00045DF0F920F920F924DB75EB70F92C0D093
:101D0000EEE1F0E016D04F915F91EF91FF91E595F4
:101D1000EE1FFF1F49F0FE57E0684427EE0F441FF7
:101D2000FA95E1F74195550B32D00F9007FE26C08A
:101D30000895DF93CF931F930F93FF92EF92DF925B
:101D40007B018C01689405C0DA2EEF0115DFFE01DE
:101D5000E894A5912591359145915591AEF3EF0108
:101D6000C2DDFE019701A801DA9479F7DF90EF90C8
:101D7000FF900F911F91CF91DF9108959B01AC01CE
:101D800060E070E080E89FE3AEC096CE14C1C4DE90
:101D9000E8F39923D9F3940F511DBBF391505040B0
:101DA00094F059F0882332F0660F771F881F915006
:101DB0005040C1F79E3F510544F7880F911D9695FD
:101DC000879597F908955F3FACF0983E9CF0BB274C
:101DD000869577956795B79508F4B1609395C1F7A7
:101DE000BB0F58F711F460FFE8CF6F5F7F4F8F4F45
:101DF0009F4FE3CFACCE0EF0DEC064CE68945CCED5
:101E00008BDEC8F39923D1F3C6F3DF93CF931F93EF
:101E10000F93FF92C92FDD2788232AF02197660FA1
:101E2000771F881FDAF720E030E040E85FEB9FE3A0
:101E3000883920F0803E30F021968F7743DDE6E44C
:101E4000F0E003C03FDDE3E7F0E073DF8B01BE01AC
:101E5000EC01FB2E6F5771097595771F880B990B55
:101E6000CCDD28E132E741E35FE386DEAF2D980168
:101E7000AE01FF900F911F91CF91DF9134DD33CEF2
:101E8000FA01DC01AA0FBB1F9B01AC01BF5728F46C
:101E900022273327442750781FC0B75188F4AB2F2F
:101EA0000024469537952795011CA395D2F3002071
:101EB00069F0220F331F441FB395DAF30DD001CD23
:101EC00061307105A0E88A07B94630F49B01AC0186
:101ED0006627772788279078309621F020833183F2
:101EE0004283538308950CD0FECDF6DD40F0EDDD46
:101EF00030F021F45F3F19F0DFCD511128CEE2CD53
:101F000003DE98F39923C9F35523B1F3951B550BC1
:101F1000BB27AA2762177307840738F09F5F5F4FBC
:101F2000220F331F441FAA1FA9F333D00E2E3AF0FD
:101F3000E0E830D091505040E695001CCAF729D017
:101F4000FE2F27D0660F771F881FBB1F2617370766
:101F50004807AB07B0E809F0BB0B802DBF01FF2796
:101F600093585F4F2AF09E3F510568F0A5CDEFCD05
:101F70005F3FECF3983EDCF3869577956795B795D0
:101F8000F7959F5FC9F7880F911D9695879597F9EB
:101F90000895E1E0660F771F881FBB1F6217730764
:101FA0008407BA0720F0621B730B840BBA0BEE1F79
:101FB00088F7E09508959F3F31F0915020F4879580
:101FC00077956795B795880F911D9695879597F9A1
:101FD00008950024552704C0080E591F880F991F23
:101FE000009729F076956795B8F37105B9F7802DBC
:081FF000952F0895F894FFCF2E
:021FF80079006E
:00000001FF
